{
  "address": "0xED28660BaAedB60BA8A25714cF9f9fD64Af8f307",
  "abi": [
    {
      "inputs": [
        {
          "internalType": "address",
          "name": "rarityTokenAddress",
          "type": "address"
        },
        {
          "internalType": "address",
          "name": "jumpTokenAddress",
          "type": "address"
        },
        {
          "internalType": "address",
          "name": "speedTokenAddress",
          "type": "address"
        },
        {
          "internalType": "address",
          "name": "intelligenceTokenAddress",
          "type": "address"
        },
        {
          "internalType": "address",
          "name": "beautyTokenAddress",
          "type": "address"
        }
      ],
      "stateMutability": "nonpayable",
      "type": "constructor"
    },
    {
      "anonymous": false,
      "inputs": [
        {
          "indexed": true,
          "internalType": "address",
          "name": "caller",
          "type": "address"
        }
      ],
      "name": "Disabled",
      "type": "event"
    },
    {
      "anonymous": false,
      "inputs": [
        {
          "indexed": true,
          "internalType": "address",
          "name": "caller",
          "type": "address"
        }
      ],
      "name": "Enabled",
      "type": "event"
    },
    {
      "anonymous": false,
      "inputs": [
        {
          "indexed": true,
          "internalType": "address",
          "name": "previousOwner",
          "type": "address"
        },
        {
          "indexed": true,
          "internalType": "address",
          "name": "newOwner",
          "type": "address"
        }
      ],
      "name": "OwnershipTransferred",
      "type": "event"
    },
    {
      "anonymous": false,
      "inputs": [
        {
          "indexed": true,
          "internalType": "uint256",
          "name": "frogId",
          "type": "uint256"
        },
        {
          "indexed": true,
          "internalType": "address",
          "name": "owner",
          "type": "address"
        },
        {
          "indexed": false,
          "internalType": "uint256",
          "name": "rarityReward",
          "type": "uint256"
        },
        {
          "indexed": false,
          "internalType": "uint256",
          "name": "jumpReward",
          "type": "uint256"
        },
        {
          "indexed": false,
          "internalType": "uint256",
          "name": "speedReward",
          "type": "uint256"
        },
        {
          "indexed": false,
          "internalType": "uint256",
          "name": "intelligenceReward",
          "type": "uint256"
        },
        {
          "indexed": false,
          "internalType": "uint256",
          "name": "beautyReward",
          "type": "uint256"
        },
        {
          "indexed": false,
          "internalType": "string",
          "name": "nameAndStory",
          "type": "string"
        }
      ],
      "name": "Squeeze",
      "type": "event"
    },
    {
      "inputs": [],
      "name": "beautyTokenContract",
      "outputs": [
        {
          "internalType": "contract PotionTokenContract",
          "name": "",
          "type": "address"
        }
      ],
      "stateMutability": "view",
      "type": "function"
    },
    {
      "inputs": [],
      "name": "disable",
      "outputs": [],
      "stateMutability": "nonpayable",
      "type": "function"
    },
    {
      "inputs": [],
      "name": "enable",
      "outputs": [],
      "stateMutability": "nonpayable",
      "type": "function"
    },
    {
      "inputs": [],
      "name": "enabled",
      "outputs": [
        {
          "internalType": "bool",
          "name": "",
          "type": "bool"
        }
      ],
      "stateMutability": "view",
      "type": "function"
    },
    {
      "inputs": [
        {
          "internalType": "uint256[1]",
          "name": "",
          "type": "uint256[1]"
        }
      ],
      "name": "hash",
      "outputs": [
        {
          "internalType": "uint256",
          "name": "",
          "type": "uint256"
        }
      ],
      "stateMutability": "pure",
      "type": "function"
    },
    {
      "inputs": [],
      "name": "intelligenceTokenContract",
      "outputs": [
        {
          "internalType": "contract PotionTokenContract",
          "name": "",
          "type": "address"
        }
      ],
      "stateMutability": "view",
      "type": "function"
    },
    {
      "inputs": [],
      "name": "jumpTokenContract",
      "outputs": [
        {
          "internalType": "contract PotionTokenContract",
          "name": "",
          "type": "address"
        }
      ],
      "stateMutability": "view",
      "type": "function"
    },
    {
      "inputs": [],
      "name": "owner",
      "outputs": [
        {
          "internalType": "address",
          "name": "",
          "type": "address"
        }
      ],
      "stateMutability": "view",
      "type": "function"
    },
    {
      "inputs": [],
      "name": "rarityTokenContract",
      "outputs": [
        {
          "internalType": "contract PotionTokenContract",
          "name": "",
          "type": "address"
        }
      ],
      "stateMutability": "view",
      "type": "function"
    },
    {
      "inputs": [],
      "name": "renounceOwnership",
      "outputs": [],
      "stateMutability": "nonpayable",
      "type": "function"
    },
    {
      "inputs": [],
      "name": "speedTokenContract",
      "outputs": [
        {
          "internalType": "contract PotionTokenContract",
          "name": "",
          "type": "address"
        }
      ],
      "stateMutability": "view",
      "type": "function"
    },
    {
      "inputs": [
        {
          "components": [
            {
              "internalType": "uint256[2]",
              "name": "_pA",
              "type": "uint256[2]"
            },
            {
              "internalType": "uint256[2][2]",
              "name": "_pB",
              "type": "uint256[2][2]"
            },
            {
              "internalType": "uint256[2]",
              "name": "_pC",
              "type": "uint256[2]"
            },
            {
              "internalType": "uint256[60]",
              "name": "_pubSignals",
              "type": "uint256[60]"
            }
          ],
          "internalType": "struct FrogCryptoSqueeze.ProofArgs",
          "name": "proof",
          "type": "tuple"
        },
        {
          "components": [
            {
              "internalType": "uint256",
              "name": "beauty",
              "type": "uint256"
            },
            {
              "internalType": "uint256",
              "name": "biome",
              "type": "uint256"
            },
            {
              "internalType": "uint256",
              "name": "intelligence",
              "type": "uint256"
            },
            {
              "internalType": "uint256",
              "name": "jump",
              "type": "uint256"
            },
            {
              "internalType": "uint256",
              "name": "speed",
              "type": "uint256"
            },
            {
              "internalType": "uint256",
              "name": "rarity",
              "type": "uint256"
            },
            {
              "internalType": "uint256",
              "name": "owner",
              "type": "uint256"
            },
            {
              "internalType": "uint256",
              "name": "temperament",
              "type": "uint256"
            },
            {
              "internalType": "uint256",
              "name": "frogId",
              "type": "uint256"
            }
          ],
          "internalType": "struct FrogCryptoSqueeze.FrogAttributes",
          "name": "attributes",
          "type": "tuple"
        },
        {
          "internalType": "address",
          "name": "owner",
          "type": "address"
        },
        {
          "internalType": "string",
          "name": "nameAndStory",
          "type": "string"
        }
      ],
      "name": "squeezeFrog",
      "outputs": [],
      "stateMutability": "nonpayable",
      "type": "function"
    },
    {
      "inputs": [
        {
          "internalType": "uint256",
          "name": "",
          "type": "uint256"
        }
      ],
      "name": "squeezeTimestamps",
      "outputs": [
        {
          "internalType": "uint256",
          "name": "",
          "type": "uint256"
        }
      ],
      "stateMutability": "view",
      "type": "function"
    },
    {
      "inputs": [],
      "name": "temperamentTokenContract",
      "outputs": [
        {
          "internalType": "contract PotionTokenContract",
          "name": "",
          "type": "address"
        }
      ],
      "stateMutability": "view",
      "type": "function"
    },
    {
      "inputs": [
        {
          "internalType": "address",
          "name": "newOwner",
          "type": "address"
        }
      ],
      "name": "transferOwnership",
      "outputs": [],
      "stateMutability": "nonpayable",
      "type": "function"
    },
    {
      "inputs": [
        {
          "components": [
            {
              "internalType": "uint256[2]",
              "name": "_pA",
              "type": "uint256[2]"
            },
            {
              "internalType": "uint256[2][2]",
              "name": "_pB",
              "type": "uint256[2][2]"
            },
            {
              "internalType": "uint256[2]",
              "name": "_pC",
              "type": "uint256[2]"
            },
            {
              "internalType": "uint256[60]",
              "name": "_pubSignals",
              "type": "uint256[60]"
            }
          ],
          "internalType": "struct FrogCryptoSqueeze.ProofArgs",
          "name": "proof",
          "type": "tuple"
        },
        {
          "components": [
            {
              "internalType": "uint256",
              "name": "beauty",
              "type": "uint256"
            },
            {
              "internalType": "uint256",
              "name": "biome",
              "type": "uint256"
            },
            {
              "internalType": "uint256",
              "name": "intelligence",
              "type": "uint256"
            },
            {
              "internalType": "uint256",
              "name": "jump",
              "type": "uint256"
            },
            {
              "internalType": "uint256",
              "name": "speed",
              "type": "uint256"
            },
            {
              "internalType": "uint256",
              "name": "rarity",
              "type": "uint256"
            },
            {
              "internalType": "uint256",
              "name": "owner",
              "type": "uint256"
            },
            {
              "internalType": "uint256",
              "name": "temperament",
              "type": "uint256"
            },
            {
              "internalType": "uint256",
              "name": "frogId",
              "type": "uint256"
            }
          ],
          "internalType": "struct FrogCryptoSqueeze.FrogAttributes",
          "name": "attrs",
          "type": "tuple"
        }
      ],
      "name": "verifyFrogAttributes",
      "outputs": [
        {
          "internalType": "bool",
          "name": "",
          "type": "bool"
        }
      ],
      "stateMutability": "view",
      "type": "function"
    },
    {
      "inputs": [
        {
          "internalType": "uint256[2]",
          "name": "_pA",
          "type": "uint256[2]"
        },
        {
          "internalType": "uint256[2][2]",
          "name": "_pB",
          "type": "uint256[2][2]"
        },
        {
          "internalType": "uint256[2]",
          "name": "_pC",
          "type": "uint256[2]"
        },
        {
          "internalType": "uint256[60]",
          "name": "_pubSignals",
          "type": "uint256[60]"
        }
      ],
      "name": "verifyProof",
      "outputs": [
        {
          "internalType": "bool",
          "name": "",
          "type": "bool"
        }
      ],
      "stateMutability": "view",
      "type": "function"
    }
  ],
  "transactionHash": "0x354429fd7e5eb6539e44ece28ef37cb4ec9a3020cc167ac18ef4bc9060221b3a",
  "args": [
    "0x103386734E9fe26A9bb0F53b20b32cBff50873f4",
    "0x6Add5597D6e33e867b6e8080Fb4F5aab7a055FF5",
    "0x7eb2D260A006311Ec0d9f618f3A38946c1bC331a",
    "0x5aB50Df3D414bA2b477e771DD99e3177EfCc15af",
    "0x056513af3bE9d3Fb07523846183FB88E496D63e1"
  ],
  "numDeployments": 1,
  "solcInputHash": "7cb998468384f2c78ec10bde2daf7636",
  "bytecode": "0x60806040526002805460ff191690553480156200001b57600080fd5b50604051620059a9380380620059a98339810160408190526200003e9162000123565b6200004933620000b6565b600280546001600160a01b0396871661010002610100600160a81b0319909116179055600480549486166001600160a01b03199586161790556005805493861693851693909317909255600680549185169184169190911790556007805491909316911617905562000193565b600080546001600160a01b038381166001600160a01b0319831681178455604051919092169283917f8be0079c531659141344cd1fd0a4f28419497f9722a3daafe3b4186f6b6457e09190a35050565b80516001600160a01b03811681146200011e57600080fd5b919050565b600080600080600060a086880312156200013c57600080fd5b620001478662000106565b9450620001576020870162000106565b9350620001676040870162000106565b9250620001776060870162000106565b9150620001876080870162000106565b90509295509295909350565b61580680620001a36000396000f3fe608060405234801561001057600080fd5b506004361061010b5760003560e01c806383e87373116100a2578063a54a2bcf11610071578063a54a2bcf1461021a578063a570f6641461022d578063c8d090d314610240578063d6d3f45d14610253578063f2fde38b1461026657600080fd5b806383e87373146101db5780638da5cb5b146101ee5780639d036e71146101ff578063a3907d711461021257600080fd5b80633c11d911116100de5780633c11d911146101955780635efd6ac8146101a8578063715018a6146101bb57806374c77ead146101c357600080fd5b8063120d6837146101105780631e43ac5414610143578063238dafe01461016e5780632f2770db1461018b575b600080fd5b61013061011e36600461535c565b60016020526000908152604090205481565b6040519081526020015b60405180910390f35b600554610156906001600160a01b031681565b6040516001600160a01b03909116815260200161013a565b60025461017b9060ff1681565b604051901515815260200161013a565b610193610279565b005b61017b6101a33660046153a1565b6102b8565b600454610156906001600160a01b031681565b6101936109be565b6002546101569061010090046001600160a01b031681565b600354610156906001600160a01b031681565b6000546001600160a01b0316610156565b61013061020d36600461541f565b6109d2565b610193613236565b61017b6102283660046154ad565b613278565b600654610156906001600160a01b031681565b61019361024e36600461552f565b614caf565b600754610156906001600160a01b031681565b6101936102743660046155fc565b61521e565b610281615294565b6002805460ff1916905560405133907ff54453d15e2e6aee566733e6da03165ea58500408e802e05aa4e75f2408f59fe90600090a2565b6000808361010001603c806020026040519081016040528092919082603c6020028082843760009201919091525050506101808101519091507f20775d939ff93797c3caceb1d6118097c1142ede6c66de4460c643e00b43b9ec146103555760405162461bcd60e51b815260206004820152600e60248201526d24b73b30b634b21039b4b3b732b960911b60448201526064015b60405180910390fd5b61035d61533e565b833581528151604051639d036e7160e01b81523090639d036e719061038690859060040161561e565b602060405180830381865afa1580156103a3573d6000803e3d6000fd5b505050506040513d601f19601f820116820180604052508101906103c79190615650565b1461040b5760405162461bcd60e51b8152602060048201526014602482015273496e76616c6964206265617574792076616c756560601b604482015260640161034c565b6020848101358252820151604051639d036e7160e01b81523090639d036e719061043990859060040161561e565b602060405180830381865afa158015610456573d6000803e3d6000fd5b505050506040513d601f19601f8201168201806040525081019061047a9190615650565b146104bd5760405162461bcd60e51b8152602060048201526013602482015272496e76616c69642062696f6d652076616c756560681b604482015260640161034c565b61010084013581526060820151604051639d036e7160e01b81523090639d036e71906104ed90859060040161561e565b602060405180830381865afa15801561050a573d6000803e3d6000fd5b505050506040513d601f19601f8201168201806040525081019061052e9190615650565b146105725760405162461bcd60e51b8152602060048201526014602482015273496e76616c69642066726f6749642076616c756560601b604482015260640161034c565b604084810135825260808301519051639d036e7160e01b81523090639d036e71906105a190859060040161561e565b602060405180830381865afa1580156105be573d6000803e3d6000fd5b505050506040513d601f19601f820116820180604052508101906105e29190615650565b1461062f5760405162461bcd60e51b815260206004820152601a60248201527f496e76616c696420696e74656c6c6967656e63652076616c7565000000000000604482015260640161034c565b6060840135815260a0820151604051639d036e7160e01b81523090639d036e719061065e90859060040161561e565b602060405180830381865afa15801561067b573d6000803e3d6000fd5b505050506040513d601f19601f8201168201806040525081019061069f9190615650565b146106e15760405162461bcd60e51b8152602060048201526012602482015271496e76616c6964206a756d702076616c756560701b604482015260640161034c565b60c0840135815260e0820151604051639d036e7160e01b81523090639d036e719061071090859060040161561e565b602060405180830381865afa15801561072d573d6000803e3d6000fd5b505050506040513d601f19601f820116820180604052508101906107519190615650565b146107945760405162461bcd60e51b8152602060048201526013602482015272496e76616c6964206f776e65722076616c756560681b604482015260640161034c565b60a08401358152610100820151604051639d036e7160e01b81523090639d036e71906107c490859060040161561e565b602060405180830381865afa1580156107e1573d6000803e3d6000fd5b505050506040513d601f19601f820116820180604052508101906108059190615650565b146108495760405162461bcd60e51b8152602060048201526014602482015273496e76616c6964207261726974792076616c756560601b604482015260640161034c565b60808401358152610120820151604051639d036e7160e01b81523090639d036e719061087990859060040161561e565b602060405180830381865afa158015610896573d6000803e3d6000fd5b505050506040513d601f19601f820116820180604052508101906108ba9190615650565b146108fd5760405162461bcd60e51b8152602060048201526013602482015272496e76616c69642073706565642076616c756560681b604482015260640161034c565b60e08401358152610140820151604051639d036e7160e01b81523090639d036e719061092d90859060040161561e565b602060405180830381865afa15801561094a573d6000803e3d6000fd5b505050506040513d601f19601f8201168201806040525081019061096e9190615650565b146109b15760405162461bcd60e51b8152602060048201526013602482015272496e76616c69642073706565642076616c756560681b604482015260640161034c565b6001925050505b92915050565b6109c6615294565b6109d060006152ee565b565b60007f30644e72e131a029b85045b68181585d2833e84879b9709143e1f593f00000017f0c0356530896eec42a97ed937f3135cfc5142b3ae405b8343c1d83ffa604cb8181608051060181818209828284838409099150826000805160206157b183398151915283097f22e11e8111ef1eba040287dd10347f960e4597f732d1241130896303e21e33250190508260008051602061577183398151915283097f4856ffdbb010431fd76f0727ff753e0ef564aa60b95bf22d457f1986b12d1d790183828009848386838409099250848283099050848286838409099150846000805160206157b18339815191528309856000805160206157518339815191528509017f1e6f11ce60fc8f513a6a3cfe16ae175a41291462f214cd0879aaf43545b74e03019050846000805160206157718339815191528309856000805160206157918339815191528509017f2a67384d3bbd5e438541819cb681f0be04462ed14c3613d8f719206268d142d3019350848182099250848186858609099050848485099250848486858609099350846000805160206157b18339815191528509856000805160206157518339815191528309017f0b66fdf356093a611609f8e12fbfecf0b985e381f025188936408f5d5c9f45d0019250846000805160206157718339815191528509856000805160206157918339815191528309017f012ee3ec1e78d470830c61093c2ade370b26c83cc5cebeeddaa6852dbdb09e21019150848384099050848386838409099250848283099050848286838409099150846000805160206157b18339815191528309856000805160206157518339815191528509017f0252ba5f6760bfbdfd88f67f8175e3fd6cd1c431b099b6bb2d108e7b445bb1b9019050846000805160206157718339815191528309856000805160206157918339815191528509017f179474cceca5ff676c6bec3cef54296354391a8935ff71d6ef5aeaad7ca932f1019350848182099250848186858609099050846000805160206157b18339815191528509856000805160206157518339815191528309017f2c24261379a51bfa9228ff4a503fd4ed9c1f974a264969b37e1a2589bbed2b91019250846000805160206157718339815191528509856000805160206157918339815191528309017f1cc1d7b62692e63eac2f288bd0695b43c2f63f5001fc0fc553e66c0551801b05019150848384099050848386838409099250846000805160206157b18339815191528309856000805160206157518339815191528509017f255059301aada98bb2ed55f852979e9600784dbf17fbacd05d9eff5fd9c91b56019050846000805160206157718339815191528309856000805160206157918339815191528509017f28437be3ac1cb2e479e1f5c0eccd32b3aea24234970a8193b11c29ce7e59efd9019350848182099250848186858609099050846000805160206157b18339815191528509856000805160206157518339815191528309017f28216a442f2e1f711ca4fa6b53766eb118548da8fb4f78d4338762c37f5f2043019250846000805160206157718339815191528509856000805160206157918339815191528309017f2c1f47cd17fa5adf1f39f4e7056dd03feee1efce03094581131f2377323482c9019150848384099050848386838409099250846000805160206157b18339815191528309856000805160206157518339815191528509017f07abad02b7a5ebc48632bcc9356ceb7dd9dafca276638a63646b8566a621afc9019050846000805160206157718339815191528309856000805160206157918339815191528509017f0230264601ffdf29275b33ffaab51dfe9429f90880a69cd137da0c4d15f96c3c019350848182099250848186858609099050846000805160206157b18339815191528509856000805160206157518339815191528309017f1bc973054e51d905a0f168656497ca40a864414557ee289e717e5d66899aa0a9019250846000805160206157718339815191528509856000805160206157918339815191528309017f2e1c22f964435008206c3157e86341edd249aff5c2d8421f2a6b22288f0a67fc019150848384099050848386838409099250846000805160206157b18339815191528309856000805160206157518339815191528509017f1224f38df67c5378121c1d5f461bbc509e8ea1598e46c9f7a70452bc2bba86b8019050846000805160206157718339815191528309856000805160206157918339815191528509017f02e4e69d8ba59e519280b4bd9ed0068fd7bfe8cd9dfeda1969d2989186cde20e019350848182099250848186858609099050846000805160206157b18339815191528509856000805160206157518339815191528309017f1f1eccc34aaba0137f5df81fc04ff3ee4f19ee364e653f076d47e9735d98018e019250846000805160206157718339815191528509856000805160206157918339815191528309017f1672ad3d709a353974266c3039a9a7311424448032cd1819eacb8a4d4284f582019150848384099050848386838409099250846000805160206157b18339815191528309856000805160206157518339815191528509017f283e3fdc2c6e420c56f44af5192b4ae9cda6961f284d24991d2ed602df8c8fc7019050846000805160206157718339815191528309856000805160206157918339815191528509017f1c2a3d120c550ecfd0db0957170fa013683751f8fdff59d6614fbd69ff394bcc019350848182099250848186858609099050846000805160206157b18339815191528509856000805160206157518339815191528309017f216f84877aac6172f7897a7323456efe143a9a43773ea6f296cb6b8177653fbd019250846000805160206157718339815191528509856000805160206157918339815191528309017f2c0d272becf2a75764ba7e8e3e28d12bceaa47ea61ca59a411a1f51552f94788019150848384099050848386838409099250846000805160206157b18339815191528309856000805160206157518339815191528509017f16e34299865c0e28484ee7a74c454e9f170a5480abe0508fcb4a6c3d89546f43019050846000805160206157718339815191528309856000805160206157918339815191528509017f175ceba599e96f5b375a232a6fb9cc71772047765802290f48cd939755488fc5019350848182099250848186858609099050846000805160206157b18339815191528509856000805160206157518339815191528309017f0c7594440dc48c16fead9e1758b028066aa410bfbc354f54d8c5ffbb44a1ee32019250846000805160206157718339815191528509856000805160206157918339815191528309017f1a3c29bc39f21bb5c466db7d7eb6fd8f760e20013ccf912c92479882d919fd8d019150848384099050848386838409099250846000805160206157b18339815191528309856000805160206157518339815191528509017f0ccfdd906f3426e5c0986ea049b253400855d349074f5a6695c8eeabcd22e68f019050846000805160206157718339815191528309856000805160206157918339815191528509017f14f6bc81d9f186f62bdb475ce6c9411866a7a8a3fd065b3ce0e699b67dd9e796019350848182099250848186858609099050846000805160206157b18339815191528509856000805160206157518339815191528309017f0962b82789fb3d129702ca70b2f6c5aacc099810c9c495c888edeb7386b97052019250846000805160206157718339815191528509856000805160206157918339815191528309017f1a880af7074d18b3bf20c79de25127bc13284ab01ef02575afef0c8f6a31a86d019150848384099050848386838409099250846000805160206157b18339815191528309856000805160206157518339815191528509017f10cba18419a6a332cd5e77f0211c154b20af2924fc20ff3f4c3012bb7ae9311b019050846000805160206157718339815191528309856000805160206157918339815191528509017f057e62a9a8f89b3ebdc76ba63a9eaca8fa27b7319cae3406756a2849f302f10d019350848182099250848186858609099050846000805160206157b18339815191528509856000805160206157518339815191528309017f287c971de91dc0abd44adf5384b4988cb961303bbf65cff5afa0413b44280cee019250846000805160206157718339815191528509856000805160206157918339815191528309017f21df3388af1687bbb3bca9da0cca908f1e562bc46d4aba4e6f7f7960e306891d019150848384099050848386838409099250846000805160206157b18339815191528309856000805160206157518339815191528509017f1be5c887d25bce703e25cc974d0934cd789df8f70b498fd83eff8b560e1682b3019050846000805160206157718339815191528309856000805160206157918339815191528509017f268da36f76e568fb68117175cea2cd0dd2cb5d42fda5acea48d59c2706a0d5c1019350848182099250848186858609099050846000805160206157b18339815191528509856000805160206157518339815191528309017f0e17ab091f6eae50c609beaf5510ececc5d8bb74135ebd05bd06460cc26a5ed6019250846000805160206157718339815191528509856000805160206157918339815191528309017f04d727e728ffa0a67aee535ab074a43091ef62d8cf83d270040f5caa1f62af40019150848384099050848386838409099250846000805160206157b18339815191528309856000805160206157518339815191528509017f0ddbd7bf9c29341581b549762bc022ed33702ac10f1bfd862b15417d7e39ca6e019050846000805160206157718339815191528309856000805160206157918339815191528509017f2790eb3351621752768162e82989c6c234f5b0d1d3af9b588a29c49c8789654b019350848182099250848186858609099050846000805160206157b18339815191528509856000805160206157518339815191528309017f1e457c601a63b73e4471950193d8a570395f3d9ab8b2fd0984b764206142f9e9019250846000805160206157718339815191528509856000805160206157918339815191528309017f21ae64301dca9625638d6ab2bbe7135ffa90ecd0c43ff91fc4c686fc46e091b0019150848384099050848386838409099250846000805160206157b18339815191528309856000805160206157518339815191528509017f0379f63c8ce3468d4da293166f494928854be9e3432e09555858534eed8d350b019050846000805160206157718339815191528309856000805160206157918339815191528509017e2d56420359d0266a744a080809e054ca0e4921a46686ac8c9f58a324c35049019350848182099250848186858609099050846000805160206157b18339815191528509856000805160206157518339815191528309017f123158e5965b5d9b1d68b3cd32e10bbeda8d62459e21f4090fc2c5af963515a6019250846000805160206157718339815191528509856000805160206157918339815191528309017f0be29fc40847a941661d14bbf6cbe0420fbb2b6f52836d4e60c80eb49cad9ec1019150848384099050848386838409099250846000805160206157b18339815191528309856000805160206157518339815191528509017f1ac96991dec2bb0557716142015a453c36db9d859cad5f9a233802f24fdf4c1a019050846000805160206157718339815191528309856000805160206157918339815191528509017f1596443f763dbcc25f4964fc61d23b3e5e12c9fa97f18a9251ca3355bcb0627e019350848182099250848186858609099050846000805160206157b18339815191528509856000805160206157518339815191528309017f12e0bcd3654bdfa76b2861d4ec3aeae0f1857d9f17e715aed6d049eae3ba3212019250846000805160206157718339815191528509856000805160206157918339815191528309017f0fc92b4f1bbea82b9ea73d4af9af2a50ceabac7f37154b1904e6c76c7cf964ba019150848384099050848386838409099250846000805160206157b18339815191528309856000805160206157518339815191528509017f1f9c0b1610446442d6f2e592a8013f40b14f7c7722236f4f9c7e965233872762019050846000805160206157718339815191528309856000805160206157918339815191528509017f0ebd74244ae72675f8cde06157a782f4050d914da38b4c058d159f643dbbf4d3019350848182099250848186858609099050846000805160206157b18339815191528509856000805160206157518339815191528309017f2cb7f0ed39e16e9f69a9fafd4ab951c03b0671e97346ee397a839839dccfc6d1019250846000805160206157718339815191528509856000805160206157918339815191528309017f1a9d6e2ecff022cc5605443ee41bab20ce761d0514ce526690c72bca7352d9bf019150848384099050848386838409099250846000805160206157b18339815191528309856000805160206157518339815191528509017f2a115439607f335a5ea83c3bc44a9331d0c13326a9a7ba3087da182d648ec72f019050846000805160206157718339815191528309856000805160206157918339815191528509017f23f9b6529b5d040d15b8fa7aee3e3410e738b56305cd44f29535c115c5a4c060019350848182099250848186858609099050846000805160206157b18339815191528509856000805160206157518339815191528309017f05872c16db0f72a2249ac6ba484bb9c3a3ce97c16d58b68b260eb939f0e6e8a7019250846000805160206157718339815191528509856000805160206157918339815191528309017f1300bdee08bb7824ca20fb80118075f40219b6151d55b5c52b624a7cdeddf6a7019150848384099050848386838409099250846000805160206157b18339815191528309856000805160206157518339815191528509017f19b9b63d2f108e17e63817863a8f6c288d7ad29916d98cb1072e4e7b7d52b376019050846000805160206157718339815191528309856000805160206157918339815191528509017f015bee1357e3c015b5bda237668522f613d1c88726b5ec4224a20128481b4f7f019350848182099250848186858609099050846000805160206157b18339815191528509856000805160206157518339815191528309017f2953736e94bb6b9f1b9707a4f1615e4efe1e1ce4bab218cbea92c785b128ffd1019250846000805160206157718339815191528509856000805160206157918339815191528309017f0b069353ba091618862f806180c0385f851b98d372b45f544ce7266ed6608dfc019150848384099050848386838409099250846000805160206157b18339815191528309856000805160206157518339815191528509017f304f74d461ccc13115e4e0bcfb93817e55aeb7eb9306b64e4f588ac97d81f429019050846000805160206157718339815191528309856000805160206157918339815191528509017f15bbf146ce9bca09e8a33f5e77dfe4f5aad2a164a4617a4cb8ee5415cde913fc019350848182099250848186858609099050846000805160206157b18339815191528509856000805160206157518339815191528309017f0ab4dfe0c2742cde44901031487964ed9b8f4b850405c10ca9ff23859572c8c6019250846000805160206157718339815191528509856000805160206157918339815191528309017f0e32db320a044e3197f45f7649a19675ef5eedfea546dea9251de39f9639779a019150848384099050848386838409099250846000805160206157b18339815191528309856000805160206157518339815191528509017f0a1756aa1f378ca4b27635a78b6888e66797733a82774896a3078efa516da016019050846000805160206157718339815191528309856000805160206157918339815191528509017f044c4a33b10f693447fd17177f952ef895e61d328f85efa94254d6a2a25d93ef019350848182099250848186858609099050846000805160206157b18339815191528509856000805160206157518339815191528309017f2ed3611b725b8a70be655b537f66f700fe0879d79a496891d37b07b5466c4b8b019250846000805160206157718339815191528509856000805160206157918339815191528309017f1f9ba4e8bab7ce42c8ecc3d722aa2e0eadfdeb9cfdd347b5d8339ea7120858aa019150848384099050848386838409099250846000805160206157b18339815191528309856000805160206157518339815191528509017f1b233043052e8c288f7ee907a84e518aa38e82ac4502066db74056f865c5d3da019050846000805160206157718339815191528309856000805160206157918339815191528509017f2431e1cc164bb8d074031ab72bd55b4c902053bfc0f14db0ca2f97b020875954019350848182099250848186858609099050846000805160206157b18339815191528509856000805160206157518339815191528309017f082f934c91f5aac330cd6953a0a7db45a13e322097583319a791f273965801fd019250846000805160206157718339815191528509856000805160206157918339815191528309017f2b9a0a223e7538b0a34be074315542a3c77245e2ae7cbe999ad6bb930c48997c019150848384099050848386838409099250846000805160206157b18339815191528309856000805160206157518339815191528509017f0e1cd91edd2cfa2cceb85483b887a9be8164163e75a8a00eb0b589cc70214e7d019050846000805160206157718339815191528309856000805160206157918339815191528509017f2e1eac0f2bfdfd63c951f61477e3698999774f19854d00f588d324601cebe2f9019350848182099250848186858609099050846000805160206157b18339815191528509856000805160206157518339815191528309017f0cbfa95f37fb74060c76158e769d6d157345784d8efdb33c23d748115b500b83019250846000805160206157718339815191528509856000805160206157918339815191528309017f08f05b3be923ed44d65ad49d8a61e9a676d991e3a77513d9980c232dfa4a4f84019150848384099050848386838409099250846000805160206157b18339815191528309856000805160206157518339815191528509017f22719e2a070bcd0852bf8e21984d0443e7284925dc0758a325a2dd510c047ef6019050846000805160206157718339815191528309856000805160206157918339815191528509017f041f596a9ee1cb2bc060f7fcc3a1ab4c7bdbf036119982c0f41f62b2f26830c0019350848182099250848186858609099050846000805160206157b18339815191528509856000805160206157518339815191528309017f233fd35de1be520a87628eb06f6b1d4c021be1c2d0dc464a19fcdd0986b10f89019250846000805160206157718339815191528509856000805160206157918339815191528309017f0524b46d1aa87a5e4325e0a423ebc810d31e078aa1b4707eefcb453c61c9c267019150848384099050848386838409099250846000805160206157b18339815191528309856000805160206157518339815191528509017f2c34f424c81e5716ce47fcac894b85824227bb954b0f3199cc4486237c515211019050846000805160206157718339815191528309856000805160206157918339815191528509017f0b5f2a4b63387819207effc2b5541fb72dd2025b5457cc97f33010327de4915e019350848182099250848186858609099050846000805160206157b18339815191528509856000805160206157518339815191528309017f22207856082ccc54c5b72fe439d2cfd6c17435d2f57af6ceaefac41fe05c659f019250846000805160206157718339815191528509856000805160206157918339815191528309017f24d57a8bf5da63fe4e24159b7f8950b5cdfb210194caf79f27854048ce2c8171019150848384099050848386838409099250846000805160206157b18339815191528309856000805160206157518339815191528509017f0afab181fdd5e0583b371d75bd693f98374ad7097bb01a8573919bb23b79396e019050846000805160206157718339815191528309856000805160206157918339815191528509017f2dba9b108f208772998a52efac7cbd5676c0057194c16c0bf16290d62b1128ee019350848182099250848186858609099050846000805160206157b18339815191528509856000805160206157518339815191528309017f26349b66edb8b16f56f881c788f53f83cbb83de0bd592b255aff13e6bce420b3019250846000805160206157718339815191528509856000805160206157918339815191528309017f25af7ce0e5e10357685e95f92339753ad81a56d28ecc193b235288a3e6f137db019150848384099050848386838409099250846000805160206157b18339815191528309856000805160206157518339815191528509017f25b4ce7bd2294390c094d6a55edd68b970eed7aae88b2bff1f7c0187fe35011f019050846000805160206157718339815191528309856000805160206157918339815191528509017f22c543f10f6c89ec387e53f1908a88e5de9cef28ebdf30b18cb9d54c1e02b631019350848182099250848186858609099050846000805160206157b18339815191528509856000805160206157518339815191528309017f0236f93e7789c4724fc7908a9f191e1e425e906a919d7a34df668e74882f87a9019250846000805160206157718339815191528509856000805160206157918339815191528309017f29350b401166ca010e7d27e37d05da99652bdae114eb01659cb497af980c4b52019150848384099050848386838409099250846000805160206157b18339815191528309856000805160206157518339815191528509017f0eed787d65820d3f6bd31bbab547f75a65edb75d844ebb89ee1260916652363f019050846000805160206157718339815191528309856000805160206157918339815191528509017f07cc1170f13b46f2036a753f520b3291fdcd0e99bd94297d1906f656f4de6fad019350848182099250848186858609099050846000805160206157b18339815191528509856000805160206157518339815191528309017f22b939233b1d7205f49bcf613a3d30b1908786d7f9f5d10c2059435689e8acea019250846000805160206157718339815191528509856000805160206157918339815191528309017f01451762a0aab81c8aad1dc8bc33e870740f083a5aa85438add650ace60ae5a6019150848384099050848386838409099250846000805160206157b18339815191528309856000805160206157518339815191528509017f23506bb5d8727d4461fabf1025d46d1fe32eaa61dec7da57e704fec0892fce89019050846000805160206157718339815191528309856000805160206157918339815191528509017f2e484c44e838aea0bac06ae3f71bdd092a3709531e1efea97f8bd68907355522019350848182099250848186858609099050846000805160206157b18339815191528509856000805160206157518339815191528309017f0f4bc7d07ebafd64379e78c50bd2e42baf4a594545cedc2545418da26835b54c019250846000805160206157718339815191528509856000805160206157918339815191528309017f1f4d3c8f6583e9e5fa76637862faaee851582388725df460e620996d50d8e74e019150848384099050848386838409099250846000805160206157b18339815191528309856000805160206157518339815191528509017f093514e0c70711f82660d07be0e4a988fae02abc7b681d9153eb9bcb48fe7389019050846000805160206157718339815191528309856000805160206157918339815191528509017f1adab0c8e2b3bad346699a2b5f3bc03643ee83ece47228f24a58e0a347e153d8019350848182099250848186858609099050846000805160206157b18339815191528509856000805160206157518339815191528309017f1672b1726057d99dd14709ebb474641a378c1b94b8072bac1a22dbef9e80dad2019250846000805160206157718339815191528509856000805160206157918339815191528309017f1dfd53d4576af2e38f44f53fdcab468cc5d8e2fae0acc4ee30d47b239b479c14019150848384099050848386838409099250846000805160206157b18339815191528309856000805160206157518339815191528509017f0c6888a10b75b0f3a70a36263a37e17fe6d77d640f6fc3debc7f207753205c60019050846000805160206157718339815191528309856000805160206157918339815191528509017f1addb933a65be77092b34a7e77d12fe8611a61e00ee6848b85091ecca9d1e508019350848182099250848186858609099050846000805160206157b18339815191528509856000805160206157518339815191528309017ed7540dcd268a845c10ae18d1de933cf638ff5425f0afff7935628e299d1791019250846000805160206157718339815191528509856000805160206157918339815191528309017f140c0e42687e9ead01b2827a5664ca9c26fedde4acd99db1d316939d20b82c0e019150848384099050848386838409099250846000805160206157b18339815191528309856000805160206157518339815191528509017f2f0c3a115d4317d191ba89b8d13d1806c20a0f9b24f8c5edc091e2ae56565984019050846000805160206157718339815191528309856000805160206157918339815191528509017f0c4ee778ff7c14553006ed220cf9c81008a0cff670b22b82d8c538a1dc958c61019350848182099250848186858609099050846000805160206157b18339815191528509856000805160206157518339815191528309017f1704f2766d46f82c3693f00440ccc3609424ed26c0acc66227c3d7485de74c69019250846000805160206157718339815191528509856000805160206157918339815191528309017f2f2d19cc3ea5d78ea7a02c1b51d244abf0769c9f8544e40239b66fe9009c3cfa019150848384099050848386838409099250846000805160206157b18339815191528309856000805160206157518339815191528509017f1ae03853b75fcaba5053f112e2a8e8dcdd7ee6cb9cfed9c7d6c766a806fc6629019050846000805160206157718339815191528309856000805160206157918339815191528509017f0971aabf795241df51d131d0fa61aa5f3556921b2d6f014e4e41a86ddaf056d5019350848182099250848186858609099050848485099250848486858609099350846000805160206157b18339815191528509856000805160206157518339815191528309017f1408c316e6014e1a91d4cf6b6e0de73eda624f8380df1c875f5c29f7bfe2f646019250846000805160206157718339815191528509856000805160206157918339815191528309017f1667f3fe2edbe850248abe42b543093b6c89f1f773ef285341691f39822ef5bd019150848384099050848386838409099250848283099050848286838409099150846000805160206157b18339815191528309856000805160206157518339815191528509017f13bf7c5d0d2c4376a48b0a03557cdf915b81718409e5c133424c69576500fe37019050846000805160206157718339815191528309856000805160206157918339815191528509017f07620a6dfb0b6cec3016adf3d3533c24024b95347856b79719bc0ba743a62c2c019350848182099250848186858609099050848485099250848486858609099350846000805160206157b18339815191528509856000805160206157518339815191528309017f1574c7ef0c43545f36a8ca08bdbdd8b075d2959e2f322b731675de3e1982b4d0019250846000805160206157718339815191528509856000805160206157918339815191528309017f269e4b5b7a2eb21afd567970a717ceec5bd4184571c254fdc06e03a7ff8378f00191508483840990508483868384090992508482830990508482868384090991505083846000805160206157b18339815191528309856000805160206157518339815191528509010660005260206000f35b61323e615294565b6002805460ff1916600117905560405133907f44bcce471802f9158ee4390426e4a931d186757cc50d302f6747504c17516d1290600090a2565b600061493d565b7f30644e72e131a029b85045b68181585d2833e84879b9709143e1f593f000000181106132b0576000805260206000f35b50565b600060405183815284602082015285604082015260408160608360076107d05a03fa9150816132e6576000805260206000f35b825160408201526020830151606082015260408360808360066107d05a03fa91505080613317576000805260206000f35b5050505050565b7f1b24b8318b5bb141500bfa3933cf02683e6bd01af5ee2d655f78891ef9ee0ddd85527f243721bd299b49eb2e872a3456b69d0123fa2a2791292f3a687d3d66628b1d5e6020860152600060808601866133bb87357f2bd9ca0fc6e3bafdd8e34669a8dbbddc2b68e647a3c3f643bd6dd83e4e7b51b07f0b79a2bd4197c3649fa5b80f937360bac421d72160a89b9e8c94c1ae609c69a4846132b3565b61340b60208801357f2b847704a1d58de83bac05005fda7d4cc9964f87fce489ec0ccc51379bd6b66b7f061144a76d5507029e507d1c9610333826c8a7527845ffaaf668f700977b9e05846132b3565b61345b60408801357f0bd9aa1400b668b37b128e34cd958522c3b5dcda843b44d480ce087c693051497f242e06684398fc76d2db85f9e78733c337593a4abda7e107b60dacb1a389020b846132b3565b6134ab60608801357f0a06057a93e980a0dfa42612caece3fcc59c2ceb8da6984496e0e6b2ff4df8ef7f1ac36a16e1834c4beb26caaf4dc37e9edc1ee62f0185418db682882bb13be986846132b3565b6134fb60808801357f0da104956ddb5741d6e81f8d6c4d8b0b265eeeee52892bdaa59a764b1a6f3ae97f20667ee1b226768508272b5dbf1ff48a60df44e2176e773638c04a01c8e019c4846132b3565b61354b60a08801357f2c3566e4933321990a84f34809019b2b619beeff6bc3a0c35db0845973a8b9077f1940ed8c8677aa1f861a5fc91aa63b1f4a9ee9d49f7dc873a7ff9648abda6005846132b3565b61359b60c08801357f0a2a7ff6203d40bbeb77b421187c5878c8fc2c35a6be3069010d0778f131ca537f038e3107a3b1daaff3c9eacc32f03543ef6c52abf7c48d1fae4e82a5e7c8854d846132b3565b6135eb60e08801357f0a00a5ba016920fb5f19aa992b8837b2bb8b12aebed6347f8ca424eeabb3980b7f22fdf492d81cc24202e468ec16289a86a030b219c4229513b97430c2d5d9c1f4846132b3565b61363c6101008801357f02487618a85f434d026f992b6a7ebb3e693330fb9a81a6d8e922726b63959d0f7f1c8702bae300bdc3813a3f03a638211dae029c66bb5bc6ad04f434c59ae3aad3846132b3565b61368d6101208801357f15ec97291744fd34bc9d86f02d5c04dbb08c469c4d46ce27e9f74adaef3804fb7f0b2ee4a3351f08f7aaefd672375186687a2ddea81559d5d77eeddcac49f81ace846132b3565b6136de6101408801357f1dad89a35053a792f9ce212f5569b85c1b2e6fc0495361dafb314b1f8bc5e1e77f0c34bf428bcf6ab1a97a656099f64a9b01664b54e3b60fad1a01d6f78445c4e4846132b3565b61372f6101608801357f243b70415bd4879f7186e2196eb54c5c2327fdf901cdc15c5f364965831e03767f2668708ddc11a54a33c8c685846de57131d5e2f5e312442c239871d8c7a02dbc846132b3565b6137806101808801357f056d2d38d49eba5b188f1d7413ddf28772f7f683e4a74aa7d5a0c3013169973a7f19ae21a379d6a810d64f5a709e3a349d944d82d4be3b4dd704254503f188c3e1846132b3565b6137d16101a08801357f047b7edcf8575d66a092739613921db2225ecbe13bf7ec874f8a0abace87cf937f2e6c84369267923cd6c9340a2a505be91c977f17836ae07ac03839562bef20f6846132b3565b6138226101c08801357f13fa975561ec118309920faae42d9457c10e2ed24b9ef5e848d71ee678ad24937f2e5fc7bfd581a073958c3decf7e6b56cbff7086d35b86d97c642adf84275a2ef846132b3565b6138736101e08801357f09adfc88b480029e47b6012d3db0d902d2cf6a7485383c9c826711f0e88fa4ab7f12fc1bdba240e9263d171d5a42d68695b33c7a10b98cc8cb83a401c40f47436c846132b3565b6138c46102008801357f118cd0c9ded786ab87e7587434e5cfb5078c7b8bcf9594c4e34d22aec587b1047f170c8a2e69cbc6ffc8fcf06ed647eccc3eda0c3464209b2d1ddf279f24db256e846132b3565b6139156102208801357f09c27402d24c991889b14e91eea2bc8abf03c7d2392f52e3f61b13a00779f0067f0609f1c308cf2b3fa045845ab0d33c412028c6a33cfce67312effbeb579b1e4e846132b3565b6139666102408801357f2952295ff472ef93eae8abafc2234cb4d472a2aeac71edfbcac8a8e1d64f523a7f1aee7d2f263c625503b25e9ed8cc74f645191bee64360ea3f8a8a79c6c78cbb4846132b3565b6139b76102608801357f145e0357601fab65e2014e83468ad1033c1e8e70ddd76870b46f4d6862426c507f07943b67e802c70508f05ec7b8b180ab6885c70b4b444c96556824be6a0aaa59846132b3565b613a086102808801357f19819404939a8d8f0eeb7ab786c67d2d589f0e164584dc565fb233c18ba0e5557f282aaeb321a5f8f5a3f4d5ed747a7d184c179a34f2e9f9dd75769bd045888cec846132b3565b613a596102a08801357f11ae75bd5f64389de84946267ce726d1a8f8120611f282da717a6db918853d8d7f2c4bdde56b70b92fa3bcafbba715f24747c2454a619b5ec29aacee0599869924846132b3565b613aaa6102c08801357f2e592c52b2d1d89ab1767cce61982f3e8be4e6489b9a9a07e3db626fdc38c4fc7f161447647782d608195daf6d102c8c28c37427d0779c87301e6981798a7c3699846132b3565b613afb6102e08801357f2bcd2a5d9f43d76cc734e796328df5e10538d4ce04791d43c2d7808fb7b0135d7f2573ced70de2a3a3298de8e2f3eac9662bcf81f071a96f5cd968607c564434ea846132b3565b613b4a6103008801357f28300c80b78c55978e5d2011b1f7196f0e708f6ddadbd9eb18da41c1eaf977797db4fbeb75508cb98b7135658d16bb426b5229892b9a1d821a69bf72d37ef0846132b3565b613b9b6103208801357f2deb6d67804c00c92c3949b62432535f742a8e8ed22e1e1e5c3281b48fb5aaed7f16eade0d1e573d5cf712d70075c204bbfbf5d1e8eabb4ab14432dcb428f16d17846132b3565b613bec6103408801357f1e29f8e1cb3cccd09c24d9f5074d1930a1fa872d60025a566233c54b17dc12fb7f0cae7f23d15412e4811b8221015bb1f708d9675134bb03569a00566b50b6fe65846132b3565b613c3d6103608801357f0273fc153a4777074e4d938655fd90420e0f381100d7ef0ba658e7a35c58fec17f236dee5233137e60d3e5bf9aa08e813c6b1e2b4a19683322f50086be4c9dd394846132b3565b613c8e6103808801357f0f2f5657f81e3f12b0e3be89d2bce992897233c3cc3e01716f27e9371400464d7f2717cb27317d864dfabcbdd3c69f7afe84b5d955b7f6635333cdcd11c8645cc1846132b3565b613cdf6103a08801357f065789e87a7e39c62bc62c20359c0417047a3ae77d6b24cd3a4bdfef1fd1f5ff7f16f27bcd9c0355ed38ef4399f7aca3150e8d1c88bc0593c68e45978ad95d1aa2846132b3565b613d306103c08801357f2123cb530970de727edec699e08b202b916f4c02fbbfad59e66b91ad1a41432b7f28766d3deb4dd0de99c990cf6e44cba439703080c19f5d8ad2dad2a3fe7e966f846132b3565b613d816103e08801357f2cd8d30ff05fd0eece2932906cc861f8792e3d774bbd9c21ff60971eea44541b7f05c603fbfa7604abfb9c2479522475dc92e66fbe4c5a81b3805d11a39cf746f7846132b3565b613dd26104008801357f0d904497767fb1b66ef42ebf38411f67f6004cc0b9e723764d2012e135247a057f16189ea085756aafdd1bb33919c4f54640ae60ada0c8876d2f5611a03b73c28c846132b3565b613e236104208801357f0b8f8c3b11aecd8952bfc07dcd5b2d15acafdb4da9065db2a73bbc299286bc1d7f184c10875b4977c7eb2f533c48bf43e363b8f931926187d6f78c307b182ebcf5846132b3565b613e746104408801357f0258200dbff6b22970bd0d7450608ad6ba7109230a72e1a279fdbebbdee4947e7f04e45b3df4eeda4d3ee69bcf882a3fa09e369d54e0c91e7d3a1f8004ed281322846132b3565b613ec56104608801357f1ec2942a5ce1a352cfbb4856a6eac7e07c49136e23e065abc3f77022fff6e6227f1ab3bd69aeb8f3e2b418ccb8fd878cef18ddad6a1ef666c452d7617c28f7e8ad846132b3565b613f166104808801357f2cb24e3a690c8d1f710fe8889ea4f16b1485c45bfc512f27355003e2d216881c7f2ffb91f6c6917887a04f4f578fe007a09897745cb4a9c91b83cb973ecb88ceeb846132b3565b613f676104a08801357f117ddb50c9da65b8375e04db382077ea9bf7ec523db6978d5c7271c7f5785b197f16beadde4c26182d5f05ae4251f3295d79a47b6e8353e7e067e0234fea5ba1a7846132b3565b613fb86104c08801357f12303080e09a39c45186fdfef5ebaca36d58f86965d6c6aeed35b7df999a6fbe7f1ee27ec371e496008287bbfe46799f6484c4a5da9ad910b357aa2944c80375de846132b3565b6140096104e08801357f07e86f8f38dc88419854b437107038a39108d379a11e54c3d6209260eac36c637f1c125b19b470a0dea7d32e0b62568ab4ff570ac82eca2077e00f738a37b3ec44846132b3565b61405a6105008801357f23b6403c9f6fcd06ddbcbbfdc83b71c9ff212e049133939b7c8f2941030f2be17f081371f322bd272ee1deffaa298876830f1409ecb176c0b209a76c7bb40bd83a846132b3565b6140ab6105208801357f12a07ab13a0ab940a72fa4c7ee8194c5856af0a29b63f5ac878570e0170dda2f7f1a222a3361939d01168db0bb288bf5cbe5a3a536b70183bd76a0f03718ecf405846132b3565b6140fc6105408801357f0e99b0fcbf37cf058dea3b1e0b5b3377e9f049de2e0c54f7ca1d09a5c3df11257f219f9769d5f83017ca93fb31019261e6050743b295f9728b1974b042a06cc107846132b3565b61414d6105608801357f2eeabb9f8784b34914257ad54f9bfd6d5c94782ec624d597534d7e3976f03bd27f254bce781b476da57e9475e9b34beb9d23c27782149e6a891ac550fa56720699846132b3565b61419e6105808801357f10865446ae96bfd8169f8b326b1606e7cacc51416b1aa263c1a943da9f7878f27f081a1bc8eb493f19f701351f5978c18ab715870cd57beecbae65f1a94f31469c846132b3565b6141ef6105a08801357f2bcd0c8af2a3fee4f6bcf65d2465c9ba63bc32197439d753e8a164ab454f9f187f0857853b757c7f6d7ab0a1cb88817969e6754c3b214c92b743508ec57f1f3f91846132b3565b6142406105c08801357f09b1a39fbf3b9a6a07d31f65a6e409e22d426204b8759dc803ca7c68e69d370d7f0a2091eeaf4c1c2380fae7b0f9d38b2a4e63e5d06f178ed9ce935b082b176bf2846132b3565b6142916105e08801357f2f1e224867fa4007687bef4c50942c5d930dfc028bcd2eaf5a70bf117ae4f5017f1b63584a0003ce39cae25dd8eea87c9374d3168aac3cc61c2a5fec86b3486faa846132b3565b6142e26106008801357f2020ac830dd7b196529f0bf2586cb3fd05be5c3b7e5fba11a3fc40f3381cc8787f18c98f19a8807355e890f241e2e5e258f17445349ad3297f33ff84437cfcdd52846132b3565b6143336106208801357f112a051b53378896c0cabf7986887d313af2869f44221067f683a838760722ab7f0ed88c498f5d09ac0f2a89fbc5314f5ac6d28b5d53da2014ba049f2a35161883846132b3565b6143846106408801357f287d0ae1ede62c8ee95efe3ae5be9d655877075ae7666721f93dbd4dd0cb08f37f1cdd77320f8fc74e6172ed0b65de66f582e85d2710333b46bffe2c415ca0aa63846132b3565b6143d56106608801357f2012ff9c8adc5e52000ecf115cf8838921a1def8abccf37cc28cf73506c719f77f099b27d9347e050f4434f5b2d1728b593e49dbda97b1aa688d367e431c6dc7f9846132b3565b6144266106808801357f03acc6f7c496e0a62c2b34dcc193e5f8bd5f1c1270555a5e8031f9201c1d1c257f01e439666c0d012bf3774ce87c427474db0742ac3c3b6464fa2b614980c34e03846132b3565b6144776106a08801357f234ce8b829cabe28bc5d824a2db3d22ba5bc77d0cff073304a698fc534c0f99a7f0c6901920296c1732a938fd2a349760f14efa712cc7596fc36a683c93db080ec846132b3565b6144c86106c08801357f176c2c5274791e95d0d8e11d8e2935601f505f1c4d64dfc9c99c9202e4086f9c7f0a3ff7db1dd8f5369fd193a754db32fb06749ce43fb6ed54eb68202c63ca1080846132b3565b6145196106e08801357f055968f9b53f5f5b77201a38363019e09975621f4f0830fb62041062ed3ccb6b7f12bc45ff1ba08b3abac11afa1dc140faa3ee06a2416621c2934e2f70174cb681846132b3565b61456a6107008801357f109e4a2e95dcd069d74d2e24a22aac2391e1f7bc00c5b278db4f8dec3f9c9b167f189d78c020c23110d388abbba1e5c4a3c9d54365c473780dc2d3fea0d4c2429e846132b3565b6145bb6107208801357f2dcaa1e329bc3a13b2de65a2b0c814cccf7f32fb555f81a0828ca97297fb03e47f02a22bdd325c06dd9588ffab6bf8ccb68c41df7f49171af1e1e43302eb49032f846132b3565b61460c6107408801357f023165581606dd3cabf7560571458b4bbd174f4cd2e744036637dc5f3cb147357f2bf513a8834d5b31431e07cdb396f91c1fe78199811e40f5ba21b0607b06fade846132b3565b61465d6107608801357f05f3293a24d82cb4f4ca97d6f74e40f3ce7d8fe37729f6b4d20fc7f27310671e7f0faacd9c677a13a943662ac66673a0b68b9cffaa8b69b90a33d592a77ab2f382846132b3565b50823581527f30644e72e131a029b85045b68181585d97816a916871ca8d3c208c16d87cfd4760208401357f30644e72e131a029b85045b68181585d97816a916871ca8d3c208c16d87cfd4703066020820152833560408201526020840135606082015260408401356080820152606084013560a08201527f2d4d9aa7e302d9df41749d5507949d05dbea33fbb16c643b22f599a2be6df2e260c08201527f14bedd503c37ceb061d8ec60209fe345ce89830a19230301f076caff004d192660e08201527f0967032fcbf776d1afc985f88877f182d38480a653f2decaa9794cbc3bf3060c6101008201527f0e187847ad4c798374d0d6732bf501847dd68bc0e071241e0213bc7fc13db7ab6101208201527f304cfbd1e08a704a99f5e847d93f8c3caafddec46b7a0d379da69a4d112346a76101408201527f1739c1b1a457a8c7313123d24d2f9192f896b7c63eea05a9d57f06547ad0cec8610160820152600087015161018082015260206000018701516101a08201527f198e9393920d483a7260bfb731fb5d25f1aa493335a9e71297e485b7aef312c26101c08201527f1800deef121f1e76426a00665e5c4479674322d4f75edadd46debd5cd992f6ed6101e08201527f090689d0585ff075ec9e99ad690c3395bc4b313370b38ef355acdadcd122975b6102008201527f12c85ea5db8c6deb4aab71808dcb408fe3d1e7690c43d37b4ce6cc0166fa7daa610220820152843561024082015260208501356102608201527f2d5dfaa0b8f3e2ecd04bd5076379fb0e131fe9f52fb12bd142e7386f3633d2d06102808201527f21931f25470766f3949906ec0cded90100641df9f78d0431bd2d36d29c7416486102a08201527f24588baf3e47cb366d1305b09e3c640494ccd9419769e9507392770caa287bbf6102c08201527f095119427a6726ba07b15dc6fc1f46b207e1a965667b2858c879f24ffd3aa7db6102e08201526020816103008360086107d05a03fa9051169695505050505050565b6040516103808101604052614955600084013561327f565b614962602084013561327f565b61496f604084013561327f565b61497c606084013561327f565b614989608084013561327f565b61499660a084013561327f565b6149a360c084013561327f565b6149b060e084013561327f565b6149be61010084013561327f565b6149cc61012084013561327f565b6149da61014084013561327f565b6149e861016084013561327f565b6149f661018084013561327f565b614a046101a084013561327f565b614a126101c084013561327f565b614a206101e084013561327f565b614a2e61020084013561327f565b614a3c61022084013561327f565b614a4a61024084013561327f565b614a5861026084013561327f565b614a6661028084013561327f565b614a746102a084013561327f565b614a826102c084013561327f565b614a906102e084013561327f565b614a9e61030084013561327f565b614aac61032084013561327f565b614aba61034084013561327f565b614ac861036084013561327f565b614ad661038084013561327f565b614ae46103a084013561327f565b614af26103c084013561327f565b614b006103e084013561327f565b614b0e61040084013561327f565b614b1c61042084013561327f565b614b2a61044084013561327f565b614b3861046084013561327f565b614b4661048084013561327f565b614b546104a084013561327f565b614b626104c084013561327f565b614b706104e084013561327f565b614b7e61050084013561327f565b614b8c61052084013561327f565b614b9a61054084013561327f565b614ba861056084013561327f565b614bb661058084013561327f565b614bc46105a084013561327f565b614bd26105c084013561327f565b614be06105e084013561327f565b614bee61060084013561327f565b614bfc61062084013561327f565b614c0a61064084013561327f565b614c1861066084013561327f565b614c2661068084013561327f565b614c346106a084013561327f565b614c426106c084013561327f565b614c506106e084013561327f565b614c5e61070084013561327f565b614c6c61072084013561327f565b614c7a61074084013561327f565b614c8861076084013561327f565b614c9661078084013561327f565b614ca3818486888a61331e565b90508060005260206000f35b60025460ff16614d015760405162461bcd60e51b815260206004820152601860248201527f53717565657a696e67206973206e6f7420656e61626c65640000000000000000604482015260640161034c565b614d0b84846102b8565b614d575760405162461bcd60e51b815260206004820152601760248201527f496e76616c69642066726f672061747472696275746573000000000000000000604482015260640161034c565b6101008301356000908152600160205260409020544290614d7b906201518061567f565b10614dd95760405162461bcd60e51b815260206004820152602860248201527f53717565657a653a20436f6f6c646f776e20706572696f64206973206e6f74206044820152671bdd995c881e595d60c21b606482015260840161034c565b61010083013560008181526001602081905260408220429055909190614dff9043615692565b6040805160208101939093529040908201526bffffffffffffffffffffffff1933606090811b82168184015230901b16607482015260880160408051601f1981840301815291905280516020909101209050600160e0850135600603614e63575060025b600060ff8216614e7860a0880135600161567f565b614e87600a600087901a6156a5565b614e9290600161567f565b614e9c91906156c7565b614ea691906156c7565b9050600060ff8316614ebd6060890135600161567f565b614ecc600a600288901a6156a5565b614ed790600161567f565b614ee191906156c7565b614eeb91906156c7565b9050600060ff8416614f0260808a0135600161567f565b614f11600a600389901a6156a5565b614f1c90600161567f565b614f2691906156c7565b614f3091906156c7565b9050600060ff8516614f4760408b0135600161567f565b614f56600a60048a901a6156a5565b614f6190600161567f565b614f6b91906156c7565b614f7591906156c7565b9050600060ff8616614f898b35600161567f565b614f98600a60058b901a6156a5565b614fa390600161567f565b614fad91906156c7565b614fb791906156c7565b6002546040516340c10f1960e01b81526001600160a01b038c8116600483015260248201899052929350610100909104909116906340c10f1990604401600060405180830381600087803b15801561500e57600080fd5b505af1158015615022573d6000803e3d6000fd5b5050600480546040516340c10f1960e01b81526001600160a01b038e81169382019390935260248101899052911692506340c10f199150604401600060405180830381600087803b15801561507657600080fd5b505af115801561508a573d6000803e3d6000fd5b50506005546040516340c10f1960e01b81526001600160a01b038d811660048301526024820188905290911692506340c10f199150604401600060405180830381600087803b1580156150dc57600080fd5b505af11580156150f0573d6000803e3d6000fd5b50506006546040516340c10f1960e01b81526001600160a01b038d811660048301526024820187905290911692506340c10f199150604401600060405180830381600087803b15801561514257600080fd5b505af1158015615156573d6000803e3d6000fd5b50506007546040516340c10f1960e01b81526001600160a01b038d811660048301526024820186905290911692506340c10f199150604401600060405180830381600087803b1580156151a857600080fd5b505af11580156151bc573d6000803e3d6000fd5b50505050886001600160a01b03168a61010001357f55aebd4374ec5d660523066258bf5ab52fdb6f8e7ec7c5da0e1f437d2e4e919387878787878f604051615209969594939291906156de565b60405180910390a35050505050505050505050565b615226615294565b6001600160a01b03811661528b5760405162461bcd60e51b815260206004820152602660248201527f4f776e61626c653a206e6577206f776e657220697320746865207a65726f206160448201526564647265737360d01b606482015260840161034c565b6132b0816152ee565b6000546001600160a01b031633146109d05760405162461bcd60e51b815260206004820181905260248201527f4f776e61626c653a2063616c6c6572206973206e6f7420746865206f776e6572604482015260640161034c565b600080546001600160a01b038381166001600160a01b0319831681178455604051919092169283917f8be0079c531659141344cd1fd0a4f28419497f9722a3daafe3b4186f6b6457e09190a35050565b60405180602001604052806001906020820280368337509192915050565b60006020828403121561536e57600080fd5b5035919050565b6000610880828403121561538857600080fd5b50919050565b6000610120828403121561538857600080fd5b6000806109a083850312156153b557600080fd5b6153bf8484615375565b91506153cf84610880850161538e565b90509250929050565b634e487b7160e01b600052604160045260246000fd5b604051601f8201601f1916810167ffffffffffffffff81118282101715615417576154176153d8565b604052919050565b6000602080838503121561543257600080fd5b83601f84011261544157600080fd5b60405181810181811067ffffffffffffffff82111715615463576154636153d8565b604052808483018681111561547757600080fd5b855b818110156154905780358352918401918401615479565b50919695505050505050565b80604081018310156109b857600080fd5b6000806000806108808086880312156154c557600080fd5b6154cf878761549c565b945060c08601878111156154e257600080fd5b6040870194506154f2888261549c565b93505086818701111561550457600080fd5b50929591945092610100019150565b80356001600160a01b038116811461552a57600080fd5b919050565b6000806000806109e0858703121561554657600080fd5b6155508686615375565b935061556086610880870161538e565b925061556f6109a08601615513565b91506109c085013567ffffffffffffffff8082111561558d57600080fd5b818701915087601f8301126155a157600080fd5b8135818111156155b3576155b36153d8565b6155c6601f8201601f19166020016153ee565b91508082528860208285010111156155dd57600080fd5b8060208401602084013760009082016020015294979396509194505050565b60006020828403121561560e57600080fd5b61561782615513565b9392505050565b602081810190828460005b600181101561564657815183529183019190830190600101615629565b5050505092915050565b60006020828403121561566257600080fd5b5051919050565b634e487b7160e01b600052601160045260246000fd5b808201808211156109b8576109b8615669565b818103818111156109b8576109b8615669565b6000826156c257634e487b7160e01b600052601260045260246000fd5b500690565b80820281158282048414176109b8576109b8615669565b86815260006020878184015286604084015285606084015284608084015260c060a084015283518060c085015260005b8181101561572a5785810183015185820160e00152820161570e565b50600060e0828601015260e0601f19601f8301168501019250505097965050505050505056fe066f6f85d6f68a85ec10345351a23a3aaf07f38af8c952a7bceca70bd2af7ad51274e649a32ed355a31a6ed69724e1adade857e86eb5c3a121bcd147943203c80cc57cdbb08507d62bf67a4493cc262fb6c09d557013fff1f573f431221f8ff92b9d4b4110c9ae997782e1509b1d0fdb20a7c02bbd8bea7305462b9f8125b1e8a264697066735822122095830bea4ebade8c9886989c79881df7d2c2bcfd09ecddca43ae548de43a9aec64736f6c63430008110033",
  "devdoc": {
    "kind": "dev",
    "methods": {
      "owner()": {
        "details": "Returns the address of the current owner."
      },
      "renounceOwnership()": {
        "details": "Leaves the contract without owner. It will not be possible to call `onlyOwner` functions anymore. Can only be called by the current owner. NOTE: Renouncing ownership will leave the contract without an owner, thereby removing any functionality that is only available to the owner."
      },
      "transferOwnership(address)": {
        "details": "Transfers ownership of the contract to a new account (`newOwner`). Can only be called by the current owner."
      }
    },
    "version": 1
  },
  "userdoc": {
    "kind": "user",
    "methods": {},
    "version": 1
  },
  "storageLayout": {
    "storage": [
      {
        "astId": 7,
        "contract": "contracts/FrogCryptoSqueeze.sol:FrogCryptoSqueeze",
        "label": "_owner",
        "offset": 0,
        "slot": "0",
        "type": "t_address"
      },
      {
        "astId": 160,
        "contract": "contracts/FrogCryptoSqueeze.sol:FrogCryptoSqueeze",
        "label": "squeezeTimestamps",
        "offset": 0,
        "slot": "1",
        "type": "t_mapping(t_uint256,t_uint256)"
      },
      {
        "astId": 163,
        "contract": "contracts/FrogCryptoSqueeze.sol:FrogCryptoSqueeze",
        "label": "enabled",
        "offset": 0,
        "slot": "2",
        "type": "t_bool"
      },
      {
        "astId": 166,
        "contract": "contracts/FrogCryptoSqueeze.sol:FrogCryptoSqueeze",
        "label": "rarityTokenContract",
        "offset": 1,
        "slot": "2",
        "type": "t_contract(PotionTokenContract)147"
      },
      {
        "astId": 169,
        "contract": "contracts/FrogCryptoSqueeze.sol:FrogCryptoSqueeze",
        "label": "temperamentTokenContract",
        "offset": 0,
        "slot": "3",
        "type": "t_contract(PotionTokenContract)147"
      },
      {
        "astId": 172,
        "contract": "contracts/FrogCryptoSqueeze.sol:FrogCryptoSqueeze",
        "label": "jumpTokenContract",
        "offset": 0,
        "slot": "4",
        "type": "t_contract(PotionTokenContract)147"
      },
      {
        "astId": 175,
        "contract": "contracts/FrogCryptoSqueeze.sol:FrogCryptoSqueeze",
        "label": "speedTokenContract",
        "offset": 0,
        "slot": "5",
        "type": "t_contract(PotionTokenContract)147"
      },
      {
        "astId": 178,
        "contract": "contracts/FrogCryptoSqueeze.sol:FrogCryptoSqueeze",
        "label": "intelligenceTokenContract",
        "offset": 0,
        "slot": "6",
        "type": "t_contract(PotionTokenContract)147"
      },
      {
        "astId": 181,
        "contract": "contracts/FrogCryptoSqueeze.sol:FrogCryptoSqueeze",
        "label": "beautyTokenContract",
        "offset": 0,
        "slot": "7",
        "type": "t_contract(PotionTokenContract)147"
      }
    ],
    "types": {
      "t_address": {
        "encoding": "inplace",
        "label": "address",
        "numberOfBytes": "20"
      },
      "t_bool": {
        "encoding": "inplace",
        "label": "bool",
        "numberOfBytes": "1"
      },
      "t_contract(PotionTokenContract)147": {
        "encoding": "inplace",
        "label": "contract PotionTokenContract",
        "numberOfBytes": "20"
      },
      "t_mapping(t_uint256,t_uint256)": {
        "encoding": "mapping",
        "key": "t_uint256",
        "label": "mapping(uint256 => uint256)",
        "numberOfBytes": "32",
        "value": "t_uint256"
      },
      "t_uint256": {
        "encoding": "inplace",
        "label": "uint256",
        "numberOfBytes": "32"
      }
    }
  }
}